S0210000454E454C3530305F53414D4C3231455F50726F746F747970652E73726563E1
S113000060100020250100002101000021010000F2
S113001000000000000000000000000000000000DC
S113002000000000000000000000000021010000AA
S11300300000000000000000210100002101000078
S11300402101000021010000210100002101000024
S11300502101000021010000210100002101000014
S11300602101000021010000210100002101000004
S113007021010000210100002101000021010000F4
S11300802101000021010000210100000000000006
S113009000000000210100002101000021010000F6
S11300A021010000210100002101000021010000C4
S11300B00000000010B5064C2378002B07D1054B37
S11300C0002B02D0044800E000BF0123237010BDC0
S11300D0080000200000000048380000084B10B55C
S11300E0002B03D00749084800E000BF0748036815
S11300F0002B00D110BD064B002BFBD09847F9E72D
S1130100000000000C0000204838000048380000BF
S11301100000000010B5014B984710BDDD0400003D
S1130120FEE7000010B51A4A1A4B9A4211D01A0081
S1130130194B9A420DD2194A03339B1A9B08013377
S11301409B000022134812498C58845004329A426E
S1130150FAD1134A134B9A420AD2D34311495B187A
S113016003218B4304339B18002102C29342FCD128
S11301700D4AFF210D4B8B4393600D4A53687F3921
S11301800B4353600B4B98470B4B9847FEE7C04615
S1130190483800000000002008000020040000206F
S11301A0080000206000002000ED00E000000000D6
S11301B000400041B536000019140000F0B5C646F1
S11301C000B5C027FF0508237B60224B224A9A62B0
S11301D0C021090699624324185D0126B043012217
S11301E0904642461043C0B2185531208446185CEC
S11301F00F25284010242043C0B262469854802022
S1130200786016489862996216329446985CB043B6
S113021042461043C0B262469854143A985C28404F
S11302202043C0B298548020800078600C489862C3
S113023099624920195CB14342461143C9B2195429
S113024034215A5C2A402243D2B25A5404BC904608
S1130250F0BDC04600280040080000408000004077
S113026000020040044A136A08210B431362383128
S1130270F823024AD150704700040040001800409F
S113028010B5024B9847024B984710BD6502000019
S1130290BD010000F0B5DE4657464E464546E0B582
S11302A0C022D205802424019460454B45499962BB
S11302B0C0210906996254604B20195C0425A946A3
S11302C004263143C9B2195454618024E4025460B1
S11302D08021C90599623C48986254604E35585D46
S11302E03043C0B2585554618020400250603748B2
S11302F082469862364898625024185D4D46A84359
S11303001855185D0127B84301263043C0B218556B
S113031038208046185C413CA446A0430C3C204352
S113032044461855802080025061906099622948A3
S113033098621934185DB8433043C0B2185540462A
S1130340185C0B3528403024A3465C462043C0B2D9
S113035044461855802040045060504698621E4818
S1130360986258208046185C4C46A0434446185571
S1130370185DB8433043C0B218553C208046185C21
S11303806446A0430D3C2043444618558020000396
S1130390506190609962114A9A625322995CB94300
S11303A03143C9B2995439215A5C2A405846024310
S11303B0D2B25A543CBC90469946A246AB46F0BDD4
S11303C00028004000080040040000C00000024073
S11303D0010002C0020000C0000102C0080000C009
S11303E0064B4021D42299500331103A9950044AC3
S11303F0D3693B390B43D3617047C04600180040B2
S11304000004004010B5044B984704490448054BC8
S11304109847054B984710BDE1030000000C0042CB
S113042044000020110A000095020000F0B5C02528
S1130430ED0504236B60144B144A9A62C022120621
S11304409A624226995D0124A14301200143C9B265
S11304509955113E995D0F27B9430143C9B2995586
S1130460202169600A4999629A6245215A5CA24333
S11304700243D2B25A5413395A5C0F20024001305D
S113048002435A54F0BDC046002800400400004016
S113049020000040054AD16980235B010B43D361EE
S11304A0402180235B00024AD15070470004004081
S11304B00018004010B5044B984704490448054B04
S11304C09847054B984710BD950400000030004242
S11304D0300000204D0600002D04000010B5044B30
S11304E09847044B9847044B9847044B984710BDD2
S11304F0390D00008102000005040000B50400006D
S113050070B504000D0000280CD00800431E98416B
S1130510C0B234220449054B984729002000044BFB
S1130520984770BD0020F4E7FC360000E10A0000A3
S11305305D0C000070B504000D00431E9841C0B26C
S113054045220449044B984729002000034B98474F
S1130550002070BDFC360000E10A0000950C00008C
S113056070B504000D00431E9841C0B24E220449E8
S1130570044B984729002000034B9847002070BD86
S1130580FC360000E10A0000A90C0000F0B5DE46CC
S113059057464E464546E0B583B006000D009146E9
S11305A0019300281ED0002A1ED01800431E984133
S11305B05A221F491F4FB847340030001E4B98473A
S11305C00100804601981D4B984748424841C0B2FB
S11305D05C221749B8470027194B9B46194E1A4B02
S11305E09A4608E00020E3E70020E1E74744BFB271
S11305F0019BBB4213D92000D84729002000B047F3
S11306000028FAD029002000D0474B46D85543464D
S1130610012BEBD94B46DB19000A5870E6E738008A
S113062003B03CBC90469946A246AB46F0BDC046DA
S1130630FC360000E10A0000BD0C0000A51F00000C
S1130640D90C0000CF0C0000EB0C000070B50500C5
S11306500C00002813D00800431E9841C0B2322277
S11306600849094B984721002800084B984700285F
S113067004D100236B60AB60EB602B6170BD002084
S1130680EDE7C04618370000E10A0000050E00003F
S113069070B504000D00002810D0002001238B4207
S11306A04041C0B20123184052220549054B9847E6
S11306B029002000044B9847002070BD0020F1E77A
S11306C018370000E10A0000310E000070B5040084
S11306D00D00002810D0002001238B424041C0B2FD
S11306E0012318405E220549054B98472900200044
S11306F0044B9847002070BD0020F1E71837000034
S1130700E10A0000870E0000F0B5CE4600B582B0C5
S113071007000D0091461E0000282DD0002001295D
S113072024D96A2219491A4B98470197290038009D
S1130730184B9847002823D0EC003C194B466360C3
S1130740A660002E1FD0144F636819882A000198F0
S1130750B847636802336360A368013BA360002B5E
S1130760F2D1002002B004BC9146F0BD002A05D0AD
S11307703000431E9841D4E70020D2E70020D0E7A0
S11307801D204042EEE70020ECE7C0461837000089
S1130790E10A0000E10E0000030F000010B5044B55
S11307A01C68044B984701002000034B984710BD78
S11307B02C000020F50C0000310D000010B5044B96
S11307C01C68044B984701002000034B984710BD58
S11307D02C000020110D0000310D000070B5060042
S11307E00C00150000280DD00800431E9841C0B22B
S11307F034220549054B984733682A00210030000C
S1130800984770BD0020F3E734370000E10A000088
S113081070B506000C00150000280DD00800431E1A
S11308209841C0B23D220549054B984773682A0098
S113083021003000984770BD0020F3E734370000F2
S1130840E10A0000F0B5DE4657464E464546E0B59F
S113085083B0051E8B4691461ED00800431E984166
S1130860C0B248224649474B98475B469E680020E1
S1130870002E72D02B7A012B10D97600002201AB06
S11308801A80B046371E64D00023984600270133EF
S11308904A461A40924645E00020E2E7002201ABB6
S11308A01A80F1E72000384B9847002843D05B4674
S11308B01B68781CD95D01AA11702A7A012A09D90A
S11308C002371A5C01AB5A7001AB198820002F4B18
S11308D0984730E00700F7E720002D4B98470028A1
S11308E02CD020002B4B984701AB18805B465B68EB
S11308F0002B23D04246013201A9097840461954FD
S11309002B7A012B08D902239C46E04401AB5B7887
S1130910594649688B5411E090460FE0B74215D20E
S1130920B04513D22C1D20001B4B9847002824D11E
S11309305346002BB6D14B469B07CDD42B7D002BC1
S1130940ECD02000154B98470028E7D02B7A012BD8
S11309500AD978084B469B070CD403B03CBC90469C
S11309609946A246AB46F0BD38004B469B07F4D5EA
S11309704046F2E743465808EFE706204042ECE7DA
S113098048370000E10A0000F11100008D11000059
S113099025120000C111000091120000591200003C
S11309A070B584B004000E001500431E9841C0B217
S11309B088220649064B98470196039520000C3877
S11309C0012201A9034B984704B070BD48370000C9
S11309D0E10A00004508000070B584B004000E0070
S11309E01500431E9841C0B2A6220649064B9847FB
S11309F00296039520000C38022201A9034B984764
S1130A0004B070BD48370000E10A0000450800004A
S1130A1070B505000C00002813D00800431E98414F
S1130A20C0B2BB220849094B9847281D2100084B36
S1130A309847002804DB074B2B61074BEB60002031
S1130A4070BD0020EDE7C04648370000E10A000011
S1130A5015110000D9090000A109000010B5040017
S1130A60431E9841C0B2D0220349044B9847201D2D
S1130A70034B984710BDC04648370000E10A000008
S1130A802111000070B504000D00431E9841C0B24E
S1130A90DC220449044B9847201D2900034B984746
S1130AA070BDC04648370000E10A0000551100003F
S1130AB070B504000D0000280BD00800431E9841B7
S1130AC0C0B2FA220449054B98470C342C6000202C
S1130AD070BD0020F5E7C04648370000E10A000079
S1130AE0002800D100BE704710B5C0B2002808D05D
S1130AF0012808D08D2205490020054B9847002085
S1130B0010BD0020FCE70120FAE7C0469C37000036
S1130B10E10A000070B504000D004C4BC0184342BC
S1130B205841C0B2AB224A494A4B9847238CDB0751
S1130B3018D40322238C1342FCD123789B070BD5B2
S1130B4023780222934323700132238C1342FCD175
S1130B500222238C1342FCD1012323700322238C11
S1130B601342FCD10122238C1342FCD1EA00521B14
S1130B709200394B9B189A786270DA78A2701A79CD
S1130B80E270DB882381238C5B05FCD1EB005B1BCB
S1130B909B00314AD3181B896381238C5B05FCD1EC
S1130BA0EB005B1B9B002C4AD3189B7A2373238C8A
S1130BB05B05FCD1EB005B1B9B00274AD318DB7A57
S1130BC06373238C5B05FCD1EB005B1B9B00224A07
S1130BD0D3189B89E3814022238C1342FCD1EB0080
S1130BE05B1B9B001C4AD318DB8923828022238C45
S1130BF01342FCD1EB005B1B9B00174AD3181B8AE2
S1130C00638280225200238C1342FCD1EB005B1BD5
S1130C109B00114AD3185B8AA38280229200238C02
S1130C201342FCD10C49EB005A1B92008A18107D28
S1130C3020779269A2625D1BAD004D196B78237019
S1130C400322238C1342FCD1002070BD00F4FFBCAE
S1130C509C370000E10A00006437000070B504000E
S1130C600D00431E9841C0B2D8220649064B98474E
S1130C7025606068054B984701002800044B98479D
S1130C8070BDC0469C370000E10A0000E90A00007C
S1130C90150B00000268137802210B431370013115
S1130CA0138C0B42FCD170470268137802218B43EA
S1130CB013700131138C0B42FCD1704703685889BF
S1130CC08006800F0338431E984101307047036843
S1130CD098790123184070470268137E02210B4360
S1130CE01376138C5B05FCD170470368988C80B233
S1130CF07047000010B50300C820400058432C3052
S1130D00FF3096214900014B984710BDC51C0000D7
S1130D1010B50300C8204000584302300321034BA0
S1130D20984703008000C018400010BDC51C000097
S1130D300139FDD87047000010B5094B5A685A6054
S1130D400220084B9847084B9847084B9847084B94
S1130D509847084B9847FF20074B984710BDC0465B
S1130D6000400041970F00004D0F00005D0F000090
S1130D70390F0000950F0000150F000010B5040096
S1130D801D4BC01843425841C0B2DC221B491C4BC6
S1130D909847A368DB0718D40322A3681A42FCD13E
S1130DA023789B070BD523780222934323700132C7
S1130DB0A3681A42FCD10222A3681A42FCD101237F
S1130DC023700322A3681A42FCD10122A3681A42A9
S1130DD0FCD1022363700023A370A3810222A368C1
S1130DE01A42FCD10023E3810222A3681A42FCD1F7
S1130DF001232376002010BD00D0FFBDB4370000CE
S1130E00E10A000070B505000C00431E9841C0B211
S1130E1052220449044B98472C602000034B984706
S1130E2070BDC046B4370000E10A00007D0D00002B
S1130E3010B5012900D910BD03681A780220824335
S1130E401A7001309A681042FCD14A009A189089AD
S1130E5002242043908102209A681042FCD11A781F
S1130E60022002431A7001309A681042FCD1002912
S1130E7004D10131DA790A42FCD0DCE70221DA79C3
S1130E800A42FCD0D7E710B5012900D910BD036888
S1130E901A78022082431A7001309A681042FCD1F9
S1130EA04A009A1890890224A043908102209A68EB
S1130EB01042FCD14A425141C9B202209A68104200
S1130EC0FCD10431490059188A889207DED51A7872
S1130ED002210A431A7001319A681142FCD1D5E704
S1130EE00023012901D91800704702680220936881
S1130EF01842FCD104314900521893889B07DB0F38
S1130F00F1E700680832520011520C2283681A4239
S1130F10FCD17047C30707D5044A054B1A62190070
S1130F20044A4B681342FCD17047C04606010100D5
S1130F3000180040FD070000034B08229A71043A90
S1130F405A71033A1A71704700040040024B86221A
S1130F505A61853A1A6170470010004082220C4B96
S1130F601A7518003821803A435C1342FCD10849B1
S1130F701022CB681A42FCD0054A137D80210B4312
S1130F801375100048390E22435C1342FCD170479C
S1130F90000C004070478023DB059B78032213403C
S1130FA098420CD08022D205FF23937193780321B9
S1130FB08B430840184390709379002BFCD0704702
S1130FC0C369DB0709D403680222134303600132B7
S1130FD0C3691A42FCD10020704704204042FBE759
S1130FE0C3699B0712D10322C3691A42FCD1036867
S1130FF0084A13400907C0229205114019430160B1
S11310000322C3691A42FCD10020704704204042E5
S1131010FBE7C046FFFFFFCF70B505000C00364B61
S1131020994203D08B031B0E032B0BD0002D52D0FF
S1131030601E8441E0B2314A3149324B98470D2059
S1131040404247E000284ED12C4A2D4900202D4B28
S11310509847E369DB0718D40322E3691A42FCD1F9
S113106023689B070BD52368022293432360013234
S1131070E3691A42FCD10222E3691A42FCD1092332
S113108023600322E3691A42FCD10122E3691A4274
S1131090FCD12C602000431E9841C0B21A4A184962
S11310A0184B9847194B23600322E3691A42FCD179
S11310B0174B63600722E3691A42FCD10023636281
S11310C03022A354E369002BFCD101332B7100239C
S11310D0EB80002070BD094A09490020094B98475C
S11310E00D204042F6E70800431E9841C0B2034A6F
S11310F00349044B9847ACE7000400431C09000073
S1131100CC370000E10A0000FA08000008000210D1
S11311104002020010B5014B984710BD19100000A1
S113112010B5041E0BD00068431E9841C0B2054A96
S11311300549064B98472068054B984710BD002089
S1131140F5E7C0467E090000CC370000E10A000044
S1131150C10F000070B505000C0000280CD0006819
S1131160431E9841C0B2054A0549064B9847286872
S11311702100054B984770BD0020F4E7C409000026
S1131180CC370000E10A0000E10F000070B5040054
S11311900D0000280BD00068431E9841C0B2054AD8
S11311A00549064B984723689D62002070BD0020C6
S11311B0F5E7C046F30A0000CC370000E10A00005E
S11311C010B5041E0BD00068431E9841C0B2054AF6
S11311D00549064B98472368986A80B210BD0020E1
S11311E0F5E7C0460A0B0000CC370000E10A000016
S11311F070B5041E0DD00068431E9841C0B201258D
S11312002840054A0549064B98472368187E28401C
S113121070BD0020F3E7C046250B0000CC3700006A
S1131220E10A000070B5051E0ED00068431E984107
S1131230C0B201242040054A0549064B98472B6853
S1131240187E8008204070BD0020F2E72C0B0000BF
S1131250CC370000E10A000010B5046800280FD064
S11312602000431E9841C0B2064A0749074B9847DD
S1131270237E00209B0702D502232376013010BD74
S11312800020F1E7350B0000CC370000E10A000034
S113129010B5046800280DD02000431E9841C0B248
S11312A0084A0949094B9847237E5BB20020002B6A
S11312B002DB10BD0020F3E7042363837C33237631
S11312C00130F6E7420B0000CC370000E10A0000D1
S11312D0F0B5D64600B584B08A46170002AB9C1D13
S11312E0D880184D0123220039002800164EB0473B
S11312F001232200009739002800B04753465B08B9
S113130001931800114FB8470123220000992800C7
S1131310B0470123220000992800B0470198B8473C
S11313200123220000992800B047012053461840A9
S1131330B8470123220000992800B04704B004BC38
S11313409246F0BD3000002009070000BD070000F0
S1131350F0B585B00C0002AB58800A2700220023A8
S113136000920193214E1EE0214D00212800214BC3
S11313709847022303AA012128001F4DA84703AA66
S113138053781B021078184300B21C4B9847020094
S11313900B00009801991A4DA84700900191013F54
S11313A0FFB2002F18D0012302AA023221001548EF
S11313B0B047012302AA023221001248B047012C8F
S11313C0D2D0002110480B4B9847022303AA0021D6
S11313D00D48094DA847D2E700220C4B0C4CA047FE
S11313E00C4B984780B205B0F0BDC0460907000019
S11313F000000020350500008D0500008535000043
S11314006920000030000020240000200000244057
S1131410892600002D200000F0B5DE4657464E46D2
S11314204546E0B5D94CA54400AFD94B9847B823FD
S1131430DB00D84A20218C46BC4462441380D64A3F
S11314408C46BC4462441380D44AD54B8C46BC447D
S113145063441A80FA20C000D24B9847C022D205B8
S1131460802109019160D04BD0489862C0200006C9
S1131470986251604B24185D042528431855516126
S1131480CB4C00212000CB4B9847CB4B2022BA18E1
S1131490D1182000C94B98472000C94B9847FC231A
S11314A0DB002022BA18D61800239B46C54B9A4667
S11314B014E05B46337002223100BF4B2020844687
S11314C0BC4463441868A8473378452B38D0337834
S11314D0DBB2AB2B24D0013C002CEAD15B46337049
S11314E0C024E40580252D01A5610120D047656154
S11314F00120D047A5610120D04765610122310058
S1131500AD4B20208446BC4463441868AE4B9847D6
S11315103378DBB2AB2BF1D1523B3022BA181370C3
S11315200122102320217918C918A34B20208446B6
S1131530BC4463441868A54B98470624A24DB8E7F9
S11315407378DBB29946A24B4A461A704B46022B7B
S113155042D04B46012B00D1CAE1AA232422BA1857
S113156013700122863BF918934B20208446BC4417
S113157063441868954B98470023337000237370B5
S1131580904C914B98460120A047022231008A4B8F
S113159020208446BC4463441868C047C025ED0538
S11315A080231B019946AB610120A0474B466B6128
S11315B00120A0473378422B00D1C1E27378422B3B
S11315C000D10FE333787278DBB29342DBD1337806
S11315D0DBB2AB2BD7D1A3E76B463B616E4B20222A
S11315E09446BC4463441D887A48401B06217A4BC8
S11315F0984782B290467861784B9847B861F96110
S11316004046774B984702000B00B869F969754C5E
S1131610A047002834D0BB8A01335B009BB2BB6176
S1131620BB690733DB08DB006A46D21A9546E946F4
S1131630D21A95467A615A4A2023FB189C182580B1
S1131640694D002269492800694B9847012169487E
S1131650694B984700212800684B984701232200D2
S113166019006448664CA047BB69002B00D1DCE23A
S1131670002290461500BA61594639739B466EE0C4
S113168043465B009BB2BB61CAE7454B20229446AC
S1131690BC44634418881F3A5B215A4B98473E4B1D
S11316A020229446BC44634418882C3080B23C4BBE
S11316B09446BC44634418801F3A5B21514B9847BD
S11316C0374B20229446BC446344188801214E4B76
S11316D098474B4642469854434601339BB2000A0E
S11316E04A46D054434602339BB2984601232C4ABF
S11316F020218C46BC44624419003E48404CA0471B
S113170028E0424A264B20218C46BC4463441A807C
S1131710234B2022BA18D418208801225B21394B8C
S1131720984720880121384B98474B4642469854A5
S1131730434601339BB2000A4A46D054434602331F
S11317409BB298460123220001212A482C4CA04731
S11317500023BB610135ADB2AB4500D17CE0002D67
S113176093D0BB69002B53D00D4B20229446BC442C
S113177063441B882C339BB2244A9342C1D8084A41
S113178020218C46BC4462441380C1E78CF7FFFFE0
S1131790150100004E0800004C080000E60500009A
S11317A04A080000BD07000000280040000800406F
S11317B044000020850A000044080000B10A00002B
S11317C05D0A00009D07000011080000DD0700000D
S11317D05C000020BF0A0000D91D00008535000010
S11317E0093600000520000000000020000C004322
S11317F001050000300000209106000035050000BE
S113180009070000D112000051130000FF0F00006F
S1131810DD4B2022BA18D2181388263B1380DB4BE9
S11318202022BA18D418208801225B21D84B98476B
S113183020880121D74B98477B6943449A1E107036
S1131840013B000A1870012322000121D248D34C25
S1131850A0470123BB617DE744463B7B9B46CA4BC3
S11318602022BA18D2180023138001231900CA4871
S1131870CA4DA8470021CA48CA4B98470121C64807
S1131880C94B9847AA233022BA1813703122BA18C8
S11318901370002C1CDD48467969013C6408A400DF
S11318A0A31D9C46022310222024A046B84442448F
S11318B00478D4545C1C457815559C1C0D7815553A
S11318C0DC1C4D7815550433023002316345EFD1E9
S11318D0C025ED0580231B019846AB610120B34C64
S11318E0A04743466B610120A0473B699D4634E60F
S11318F06B467B60AE4B20229446BC4463441C88F8
S1131900AC48001B0621AC4B98473861C3B21D009C
S1131910AA4B98469847B861F9617D612800C04791
S113192002000B00B869F969A54DA84700283BD00F
S11319307B695D00AB1C7B617B690733DB08DB00E3
S11319406A46D21A9546BA606946C91A8D46396103
S11319508D492023FB185D182C809A4C00229A494B
S113196020009A4B984700218B48994B98470021B7
S11319702000984B984701232A0000218648874C71
S1131980A0477B69002B00D16BE1002398467E4978
S11319902022BA1854184946F9609946BB615B463F
S11319A0FB70BA68934654E03D7C6B007B61C3E7EF
S11319B0208800226221764B98477D4B2022944652
S11319C0BC44634418882C3080B2208000226221F9
S11319D06F4B9847208800216E4B98475B464A46D8
S11319E098544B4601339BB2000A5A46D0544B4696
S11319F002339BB299460123220000216648674DB9
S1131A00A8471FE0744B2380208800226221604B8A
S1131A109847208800215F4B98475B464A46985474
S1131A204B4601339BB2000A5A46D0544B4602330C
S1131A309BB299460123220000215748574DA847DD
S1131A400023BB61434601339BB298467B694345FF
S1131A5037D04346002BABD0BB69002B07D023887B
S1131A602C339BB25C4A9342CCD82380CCE72388A6
S1131A70263B23804E4B20229446BC446344188862
S1131A8000226221424B9847494B20229446BC4491
S1131A906344188800213F4B98473B694B449A1E86
S1131AA01070013B000A18700123414A20218C4622
S1131AB0BC44624400213848384DA847FB68BB61E8
S1131AC0C0E74D46FB789B462F4B2022BA18D2180C
S1131AD000231380012300212F48304CA04700210C
S1131AE03848304B984700212B482F4B9847AA235E
S1131AF03022BA1813703122BA181370002D1CDD6D
S1131B00B86839696B1E5B089B0006339C46022348
S1131B1010222024A046B84442440478D4545C1CC7
S1131B20457815559C1C0D781555DC1C4D781555BC
S1131B300433023002316345EFD17B689D460CE5E6
S1131B407378002B00D139E575780A235D43002DA5
S1131B5000DCC3E40024214B9946144B984610231F
S1131B6020229446BC44634419191F3A1C4B20207C
S1131B708446BC4463441868C8470520C047013400
S1131B80A542ECD1AAE4C0464A0800004C08000073
S1131B90D11200005113000030000020090700009A
S1131BA00000002061050000CD0600009D07000034
S1131BB04E080000BF0A0000D91D00008535000052
S1131BC00520000024000020000C00430105000053
S1131BD09106000035050000FF0F0000DD0700003E
S1131BE0440800003378002B00D1EBE435780A2355
S1131BF05D43002D00DC71E40024284B9946284BFA
S1131C009846102320229446BC44634419191F3A71
S1131C10244B20208446BC4463441868C8470520EC
S1131C20C0470134A542ECD158E41F4B2022BA1816
S1131C30D218002313801D4C0123190020001C4DD1
S1131C40A84700211B481C4B9847012120001B4B2F
S1131C509847AA233022BA1813703122BA18137085
S1131C6036E6114B2022BA18D218002313800F4CE9
S1131C700123002120000E4DA847002110480E4BDF
S1131C809847002120000D4B9847AA233022BA1808
S1131C9013703122BA1813704FE7C046DD070000F5
S1131CA09D070000440800004A080000300000209E
S1131CB0090700000000002061050000CD060000B7
S1131CC024000020002243088B4274D303098B4272
S1131CD05FD3030A8B4244D3030B8B4228D3030CF8
S1131CE08B420DD3FF22090212BA030C8B4202D39A
S1131CF01212090265D0030B8B4219D300E0090AC2
S1131D00C30B8B4201D3CB03C01A5241830B8B42CA
S1131D1001D38B03C01A5241430B8B4201D34B03B3
S1131D20C01A5241030B8B4201D30B03C01A524118
S1131D30C30A8B4201D3CB02C01A5241830A8B429D
S1131D4001D38B02C01A5241430A8B4201D34B0286
S1131D50C01A5241030A8B4201D30B02C01A5241EA
S1131D60CDD2C3098B4201D3CB01C01A524183099E
S1131D708B4201D38B01C01A524143098B4201D3D8
S1131D804B01C01A524103098B4201D30B01C01A03
S1131D905241C3088B4201D3CB00C01A524183087D
S1131DA08B4201D38B00C01A524143088B4201D3AA
S1131DB04B00C01A5241411A00D20146524110460A
S1131DC07047FFE701B5002000F0F0F802BDC046FF
S1131DD00029F7D076E7704703460B437FD40022EF
S1131DE043088B4274D303098B425FD3030A8B42AB
S1131DF044D3030B8B4228D3030C8B420DD3FF2215
S1131E00090212BA030C8B4202D31212090265D0E2
S1131E10030B8B4219D300E0090AC30B8B4201D395
S1131E20CB03C01A5241830B8B4201D38B03C01ADC
S1131E305241430B8B4201D34B03C01A5241030B53
S1131E408B4201D30B03C01A5241C30A8B4201D304
S1131E50CB02C01A5241830A8B4201D38B02C01AAF
S1131E605241430A8B4201D34B02C01A5241030A26
S1131E708B4201D30B02C01A5241CDD2C3098B420B
S1131E8001D3CB01C01A524183098B4201D38B0188
S1131E90C01A524143098B4201D34B01C01A52412B
S1131EA003098B4201D30B01C01A5241C3088B4270
S1131EB001D3CB00C01A524183088B4201D38B005B
S1131EC0C01A524143088B4201D34B00C01A5241FD
S1131ED0411A00D201465241104670475DE0CA0FD4
S1131EE000D04942031000D34042534000229C4694
S1131EF003098B422DD3030A8B4212D3FC2289019E
S1131F0012BA030A8B420CD3890192118B4208D373
S1131F10890192118B4204D389013AD0921100E0D5
S1131F208909C3098B4201D3CB01C01A52418309E9
S1131F308B4201D38B01C01A524143098B4201D316
S1131F404B01C01A524103098B4201D30B01C01A41
S1131F505241C3088B4201D3CB00C01A52418308BB
S1131F608B4201D38B00C01A5241D9D243088B4211
S1131F7001D34B00C01A5241411A00D201466346B4
S1131F8052415B10104601D34042002B00D5494218
S1131F90704763465B1000D3404201B5002000F057
S1131FA005F802BD0029F8D016E770477047C0460F
S1131FB08446101C62468C46191C634600E0C046E9
S1131FC01FB500F033FF002801D40021C8421FBD13
S1131FD010B500F08DFE4042013010BD10B500F088
S1131FE025FF002801DB002010BD012010BDC046E4
S1131FF010B500F01BFF002801DD002010BD0120FA
S113200010BDC04610B500F0ADFE002801DC002074
S113201010BD012010BDC04610B500F0A3FE00287D
S113202001DA002010BD012010BDC04670B50022A9
S11320300C4B04000D00FFF7EFFF002804D1200033
S1132040290001F06BFA70BD064B00222000290024
S113205000F04EFF01F062FA80231B069C466044A8
S1132060F1E7C0460000E041F8B54546DE46574674
S11320704E460C03E0B54E00C90F88460D00610AB8
S1132080440F0C43C70019035800DB0F9B464B0A4F
S1132090510F0B43760D400D1900D200D84500D1E5
S11320A0AEE0351A002D00DCF6E000280FD1134312
S11320B000D1DBE06B1E002B00D037E1BA1A974247
S11320C0BF41641A7F42E41B0126170024E0C64B7B
S11320D09E424DD080231B041943382D00DD07E1B7
S11320E01F2D00DD38E12020431B9A460B0050468B
S11320F08340994613004846EB401843030050467A
S11321008240501E8241E9401A43BA1A611A97422A
S1132110A441170064420C1B230262D56402650AC1
S1132120002D00D1DFE0280001F0A6FA0300083BEF
S11321301F2B00DDD2E020223C00D21A9D40D44067
S11321409F4025439E4200DDC4E09E1B731C1F2B51
S113215000DDF1E0202238002900D21AD840914055
S113216097402C000143781E8741DC4000260F4332
S11321707B0709D00F233B40042B05D03B1DBB42FA
S1132180BF417F42E4191F0023022CD5964B013630
S11321909E4200D19AE04546944BFF081C406007DC
S11321A0760564020743240B760D00212403230BD8
S11321B00C0D8F4A24051C431440330523435B0054
S11321C0ED075B082B43380019003CBC9046994648
S11321D0A246AB46F8BD6446044300D111E20400B4
S11321E067467B07C6D145466007FF080743E408F6
S11321F07D4B9E4230D024037605240B760DD4E724
S1132200331A9A46002B78DD002831D0764886426E
S1132210AED08020000401435346382B00DCE9E0B3
S11322200A43511E8A410021D219BA42BF410919F9
S11322307C4217000C192302D3D56B4B01369E4206
S113224000D13AE10120694B1C407B0807401F4341
S1132250E007074364088BE723003B4300D1CBE14D
S11322608022120314432403240B9EE72E007FE7ED
S11322700800104300D1B4E0581E002800D0DEE06E
S1132280BA18BA429B4164185B42E418170001264D
S11322902302A6D50226D5E7002D6ED1701C400579
S11322A0400D012800DCF9E0B81A844687428041D9
S11322B0E51A40422D1A280200D489E0D71BBA42FD
S11322C092411C1B5242A51AD84629E745460024D0
S11322D000276AE7454CF61A2C4049E73D002838A8
S11322E0854000272EE7380001F0C6F920301DE7AD
S11322F00A43511E8A41002107E7002B00D0F3E076
S1132300701C43055B0D012B00DCADE0364B98429D
S113231000D1D1E0BA18BA42BF4164187F42E4192F
S1132320E707520817436408060021E72E48854250
S113233000D193E01D00D0E629001F3EF140202B80
S113234000D18DE04022D31A9D402F437D1EAF4122
S113235000240F43002644E72B000800203BD8400C
S11323600300202D00D17DE04020451BA9400A43F5
S1132370511E8A4100211A43C7E6002E50D01A4E3E
S1132380B04257D080266B429946360434434B46BC
S1132390382B00DDD6E01F2B00DD35E12026F51AB1
S11323A02600AE40B2463E00DE40AC4635005646FE
S11323B02E436546AF407D1EAF41DC403743D71BFB
S11323C0BA4292410C1B5242A41A0600D846A3E614
S11323D0644667462C4300D0A2E600250026002769
S11323E006E71E00C4E6C046FF070000FFFF7FFFAC
S11323F0FFFF0F801F2B63DC2020C31A08009840C6
S11324009C46834653461000D84003005846184360
S113241063469A40531E9A4153460243D94003E708
S113242026003E4306D0EB439946002BC7D0944E7A
S1132430B042ACD10C0017000600D84698E6904B89
S11324409A450BD08246E7E6002800D09EE01800AB
S1132450104300D1E9E01C001700D846884E87E6F7
S1132460002572E7002182E723003B43002E00D0C1
S1132470ABE0002B00D1E7E00B00134300D177E67B
S1132480BA18BA42BF4164187F42E419230200D447
S1132490F2E07C4B17001C40060069E6200038433C
S11324A0002ED1D100285BD11C00144300D1A8E038
S11324B01C001700D8465BE606000024002797E6B8
S11324C050460B002038C34099465346202B00D178
S11324D095E0402350461B1A99400A43511E8A41F5
S11324E04B4600211A439FE6002E30D126003E437E
S11324F067D0DB439A46002B1CD0614EB04260D0BB
S11325005346382B00DD96E01F2B00DD9FE020268C
S1132510F31A26009E409C46B34653463E00DE40D6
S113252033005E461E4363469F407B1E9F415346D5
S1132530DC403743BF189742924164185242A418B2
S1132540060078E627437C1EA741002437E74C4E5B
S1132550B04236D080265B4236049A463443CFE7F5
S11325601800104300D103E6B81A84466745AD410C
S1132570E01A6D42401B050200D42CE6D71BBA4278
S113258092411C1B5242A41AD846F1E5180010438C
S113259000D163E7F808670707438020E4080003D5
S11325A0044208D0DD08054205D1D2085907114379
S11325B00F002C00D8467B0FE4001C43FF00304E74
S11325C0D6E50C0017000600D2E5002B38D00B002E
S11325D0134300D142E7F808670707438020E40863
S11325E000030442E7D0CB080342E4D1D2084907F0
S11325F011430F001C00DEE700270024D5E500216D
S11326006BE700250027F3E54E462500203EF54004
S11326104B462E00202B2DD04025ED1AAC402743ED
S11326207C1EA74100243743C9E6802400252403E7
S1132630134E0027DCE527437C1EA741002479E7DD
S11326400C0017000E4E93E50C00170090E556465B
S11326502300203EF34099465346202B0ED04023BE
S113266056469B1B9C4027437C1EA7414B46002497
S11326701F435FE70024D2E71700B2E50024F2E726
S1132680FF070000FFFF7FFFF0B557464546DE46D3
S11326904E46E0B54C000E0387B0834692461D00BB
S11326A08046360B640DCF0F002C4FD06F4B9C42ED
S11326B035D08023420F1B04F6001343334399465D
S11326C0C30098466A4B00269C4600236444039347
S11326D02B031B0B9B466B00ED0F50465B0D0195C6
S11326E05ED0624A934253D05A46D1008022400FB2
S11326F0120402430A4393465246D1005C4A94466C
S1132700002263443800684084460290E41A164369
S11327100F2E00D9B4E0574BB6009B599F460300D7
S1132720334399466CD10023984602330826039319
S1132730CEE7CB464146039A0197022A65D1019B15
S11327404A4C9C460023002298466BE00300334326
S113275099464ED0002E00D1BCE1300000F08CFF31
S113276003000B3B1C2B00DDACE11D22D31A5A469F
S11327700100DA4008398E401300334399465B4622
S11327808B40984600233C4C0026241A03939FE771
S113279051465A46114329D1002293460232B1E7E9
S11327A0594601431ED05B46002B00D19EE158469A
S11327B000F062FF03000B3B1C2B00DD8FE10200E5
S11327C05946083A91408B461D21CB1A5146D940AF
S11327D00B0059460B4351469B469140264B002221
S11327E01B1A8FE7002301229B468BE751460322E5
S11327F088E700239846013304260024039367E7FF
S11328000323B14603930C2662E7032A00D15CE25A
S1132810019B012A00D0E4E113409C4600230024DC
S11328200022984600211203130B0A0D12051A43C5
S11328302305124C40462240134362465B00D207F4
S11328405B081343190007B03CBC90469946A24666
S1132850AB46F0BD002380229C4612039846034CED
S1132860E0E70023014C00229846DBE7FF07000065
S113287001FCFFFFE83700000DFCFFFFFFFF0F80A6
S1132880D94500D939E100D134E1002346464D460B
S11328909A46013C5B460A0E1B021A430B02170CB4
S11328A0039313041B0C3900280090460193FFF78F
S11328B009FA0200019B83465A43280039009146D5
S11328C0FFF786FA350C09040D43A9450DD95B467B
S11328D04544013BA84500D93AE1A94500D837E170
S11328E002235B429C464544E3444B46EB1A3900C1
S11328F018000493FFF7E6F9019B050043433900F0
S113290004989946FFF764FA330409041B0C0B433B
S1132910994509D943446A1E984500D91AE1994555
S113292000D817E1023D43444A469B1A5A46120412
S11329302A4303999346100C0A0C914609045A46FB
S1132940090C4E460D001204120C454305915143E7
S11329507243704352190E0CB218954203D9802564
S11329606D02AC466044150C09041204090C2818C5
S11329705218834200D2CEE000D1C8E01D1A53465B
S11329809E1AB24592415242AB1A9A46984500D1DA
S113299017E139001800FFF795F9019B050043433F
S11329A0390050460493FFF713FA04980B04310CD2
S11329B01943884209D941446B1E884500D907E16F
S11329C0884200D804E1023D4144049BCB1A18001C
S11329D039000493FFF776F9019B8246434339009B
S11329E004980193FFF7F4F901980B043104090CDE
S11329F0194388420DD953464144013B884500D9C7
S1132A00E8E0884200D8E5E002235B429C4641446A
S1132A10E244019B2D04CE1A51462943059D4F469D
S1132A202A000B04080C1B0C5A4345437B43784390
S1132A305B19170CFB189D4203D980256D02AC4627
S1132A4060441D0C12041B04120C28189B188642A7
S1132A5000D293E000D18EE001231943A04BE31888
S1132A60002B00DC99E04A0700D09EE05A46D201D0
S1132A7006D55A469B4B1A4080239346DB00E31845
S1132A80994A934268DD0123029A984C1A40002324
S1132A90944698460022C5E680224B461203134210
S1132AA00AD05B46134206D11A431203120BAC46FA
S1132AB088468E4CB6E64B461A431203120BBC46AC
S1132AC08A4CAFE603005A46283B9A4000239146BD
S1132AD0984657E6584600F0CFFD203040E6030004
S1132AE05246283B9A400021934677E600F0C4FD05
S1132AF020305FE6884500D2C7E64B46DE075D0816
S1132B0043465B081E434346DB079A46C2E600255C
S1132B10924500D333E7039E5946B446E244B24596
S1132B20AD416D424544EB180139984507D29842AE
S1132B3000D97FE000D1BCE01D1A8B461FE7984501
S1132B40FAD1039D5545F2D943468B461D1A16E723
S1132B509B46CAE61500E7E65A46C90852070A43E7
S1132B605B0590465C0D5A460123029952021940B6
S1132B70120B8C4656E6002B00D16FE746444A1EE2
S1132B80B04529D91100864200D065E7039A9342E3
S1132B9000D061E762E7012149420120C21A382AC4
S1132BA021DD029B03409C4638E60F220A40042A9A
S1132BB000D15BE70A00111D9142924152429344B5
S1132BC054E7474BE318002BE5DD01225242F2E7BC
S1132BD01D00FAE69A461CE7B04239D86ED01100BF
S1132BE03AE702933AE71F2A3CDC20239B1A0C00A5
S1132BF05846994098404B1E99415B46D440D34077
S1132C00204308431A00430709D00F230340042B31
S1132C1005D00100081D88429B415B42D218130273
S1132C203AD50123029A01241A4000239446984677
S1132C300022F7E5022149428C46039DE344AC4659
S1132C40E244AA45AD416D424544ED182D1A96E67D
S1132C508A1E03994D008D428941494241447618A8
S1132C6003958FE71F204042C31A5846D8400300FB
S1132C70202A28D040205D46821A954029434A1EC6
S1132C8091411943072300220B4009D00F2300224E
S1132C900B400800042BBDD1010053075202120B54
S1132CA0C9081943012388460299002419408C4617
S1132CB0B8E55245BED88B46002560E6039D9D428B
S1132CC0C6D3110062E70025D8E780225B461203D1
S1132CD01A43019B1203120B9C468846034CA1E540
S1132CE0FF030000FFFFFFFEFE070000FF070000D8
S1132CF0F0B54F464646D6465C00C0B51F03DB0F11
S1132D009A46174B0E034D0084468046360B6D0DD4
S1132D10C90F91463F0B640D01209D4208D09C428F
S1132D2001D0A5420BD01CBC90469946A246F0BDEA
S1132D3063463343F7D1AC42F5D13A43F3D1012092
S1132D40BE42F0D1C845EED1514507D0002DEAD19D
S1132D5063461E433000461EB041E4E70020E2E72C
S1132D60FF070000F0B54546DE4657464E46E0B53F
S1132D701F033D0B2C4F0E034C00AB465D008446F5
S1132D80360B640DC90F90466D0DDB0FBC422AD083
S1132D90254FBD422DD0002C0FD130430700814672
S1132DA078427841C0B2002D17D15F463A4314D11E
S1132DB04B460020002B0AD006E0002D02D15846D5
S1132DC0024301D0994218D04842012108433CBC37
S1132DD090469946A246AB46F0BD0028F2D00120A9
S1132DE0013B1843F3E737000743D1D002204042A8
S1132DF0EDE75F461743CED0F8E7AC42E4DC03DAF4
S1132E00481E01210843E2E75E45DDD806D00020D4
S1132E105E45DCD20123481E1843D8E7C445D3D805
S1132E200020C445F6D3D2E7FF070000F0B54E46B4
S1132E304546DE4657465C00E0B51F03DB0F994666
S1132E402A4B0E034D00C90F8446360B6D0D8B467D
S1132E5090463F0B640D9D4220D0244B9C4222D0CF
S1132E60002D12D1304343424341DBB2002C1FD02A
S1132E70002B0CD04B460120013B034318003CBC03
S1132E8090469946A246AB46F0BD002C16D0CB45E1
S1132E9017D05B46594201230B43EFE7310002236D
S1132EA00143EBD1D9E7390002231143E6D1D7E737
S1132EB03A43DDD100230028E0D0EAE73A43E6D1E3
S1132EC0E7E7A542E5DC05DBBE42E2D807D00023F4
S1132ED0BE42D3D25946012301390B43CEE7C44540
S1132EE0D7D80023C445F5D3C8E7C046FF07000080
S1132EF0F0B54646D6464F460C03C0B5CD0F4E003E
S1132F00610A440F0C43C1005800400D84468A46B0
S1132F100F001903500F490A0143C648760DA8460D
S1132F20DB0FD200844500D1D8E001204340AB42FE
S1132F3000D1A6E06046351A002D00DC05E100282A
S1132F4010D10B00134300D1D7E06B1E002B00D02F
S1132F504BE153469F1ABA458041641A4042241AF1
S1132F6001261EE0B34B9E4248D080231B04194324
S1132F70382D00DD19E11F2D00DD4CE120230F0069
S1132F805B1B10009A409F40E840531E9A41E94061
S1132F90074317435346DF1B611ABA45A4416442F1
S1132FA00C1B230200D4C5E06402650A002D00D185
S1132FB0F6E0280000F060FB0300083B1F2B00DD57
S1132FC0E9E020223C00D21A9D40D4409F40254392
S1132FD09E4200DDDBE09E1B731C1F2B00DD0AE11B
S1132FE020223800D21A290097402C009140D84062
S1132FF07A1E9741DC40002601430F437B0709D02A
S11330000F233B40042B05D03B1DBB42BF417F42F5
S1133010E4191F00230225D5864B01369E4200D1B8
S1133020AFE0854B01251C4043466207FF0864025C
S113303076051743240B760D1D4000212403230B32
S11330400C0D7E4A24051C431440330523435B00C6
S1133050ED075B082B43380019001CBC90469946C9
S1133060A246F0BD012543466207FF081743E40862
S11330701D40704B9E4236D024037605240B760DFA
S1133080DBE76346F31A002B00DC94E0604600287B
S113309035D068488642B1D080273F043943382B65
S11330A000DCFDE00A43170000217A1E97415744D3
S11330B057458041091944420C1923023AD55D4B06
S11330C001369E4200D14BE101225B4B1C407B0840
S11330D017401F43E207174364088FE708001043B3
S11330E000D024E721E723003B4300D1B9E180224B
S11330F0120314432403240B9FE72E007EE70800E9
S1133100104300D1CAE0581E8446002800D0E7E0EE
S11331105244524580416418404224181700012645
S1133120230207D50226CFE764462C4300D1B3E13E
S11331302C0067467B0700D062E76307FF081F4344
S113314001254346E4081D4093E7002D78D1751C02
S11331506D056D0D012D00DCF2E05046801A8245AC
S1133160BF41651A7F42ED1B8446280200D48CE0DF
S11331705046171ABA4292410C1B5542651B984699
S113318014E70125434600241D40002755E72A4C37
S1133190F61A2C4032E73D0028388540002717E70F
S11331A0380000F069FA203006E70A4317000021CE
S11331B07A1E9741EEE6002B00D0E5E0731C9C4696
S11331C05B055B0D012B00DC9FE01A4B9C4500D195
S11331D0C5E0524452458041641840422418E70730
S11331E0520817436408664608E71248854200D12E
S11331F085E01D00BCE629001F3EF140202B00D1D4
S11332007FE04022D31A9D402F437D1EAF4100240E
S11332100F4300268EE72B000F00203BDF40202DBC
S113322071D040235D1BA9400A43511E8A410021ED
S11332301743AFE6FF070000FFFF7FFFFFFF0F808C
S1133240002E3ED0B34EB44545D0802636046D42A0
S11332503443382D00DDA8E01F2D00DD1FE12026BA
S113326027005046761BB740E84007435046B0401D
S1133270461EB041EC403843171ABA4292410C1B27
S11332805242A41A664698468BE6644667462C4327
S113329000D08BE6002500260027EAE61E00ADE6F6
S11332A01F2B60DC2027F81A0F008446874010008B
S11332B0D840074360468240501E8241D94017439C
S11332C0F5E626005046064305D0ED43002DD3D045
S11332D0904EB445BDD10C001700664698468DE665
S11332E08C4883420BD06346D9E6002D00D096E08B
S11332F00800104300D1E2E00C0017009846854E08
S11333007CE6002580E700218EE723005046034336
S1133310002E00D0A8E0002B00D1DEE00B00134308
S113332000D16BE65244524580416418404224184F
S11333301700230200D4FDE6774B66461C405DE689
S1133340250050460543002ECFD1002D4FD10C004F
S1133350144300D1A0E00C00170098464EE66646E0
S11333600024002785E61F000800203FF8400700DE
S1133370202B00D18EE04020C31A99400A43511EED
S11333808A410021174392E6002E14D126005046AC
S1133390064362D0DB43002B5CD1871897429241ED
S11333A064185242A418664687E650462043441ED9
S11333B0A041002460E7574EB4454ED08026360421
S11333C05B423443382B00DD7FE01F2B00DD8BE0B4
S11333D0202627005046F61AB740D84007435046E7
S11333E0B040461EB0410743DC40BF18D6E70D008D
S11333F0154300D102E65046801A8245BF41651A42
S11334007F42ED1B8446280200D48DE65046171AED
S1133410BA4292410C1B5242A41A9846EEE50D00A2
S1133420154300D16BE750466707C0080743802067
S1133430E4080003044207D0CD08054204D12C005F
S11334409846D70849070F437B0FE4001C43FF004D
S1133450304ED3E52F4EB445B4D10C001700664668
S1133460CCE500270024E8E5002B39D00B001343FA
S113347000D144E7C008670707438020E40800033D
S11334800442E1D0CB080342DED1D70849070F43F9
S11334901C00D9E7002171E700250027E9E52E008B
S11334A02700203EF740202D2FD04026751BAC402E
S11334B050462043441EA04100243843DCE68024C7
S11334C000252403134E0027D3E55046204307006C
S11334D0781E87410024BF1860E70C0017008DE5B3
S11334E00C0017000B4E89E51E002700203EF74014
S11334F0202B0CD04026F31A9C4050462043441EF7
S1133500A04107430024BF1848E70024D0E7002463
S1133510F3E7C046FF070000FFFF7FFF30B5134D00
S11335200A034B00120B5B0DC90F0024AB4210DDE4
S11335300F4CA3420FDC80240E4D64032243ED1A8A
S11335401F2D0BDD0C48C31ADA405442002900D168
S11335501400200030BD094BCC18FAE7084CE840B1
S1133560A44663449A400243EFE7C046FE030000CA
S11335701D0400003304000013040000FFFFFF7F5C
S1133580EDFBFFFF70B5002830D0C317C4185C40B2
S1133590C50F200000F070F8174B184A1B1AD21AF6
S11335A01F2A18DD164AD21A9440002224035B0510
S11335B0240B5B0D0021100024030A0D240B1205BB
S11335C02243104C1B05224013435B00ED075B08AC
S11335D02B43190070BD210091400A000B21081AE9
S11335E0C4405B052403240B5B0DE3E700250023A3
S11335F000240022DEE7C0461E040000330400005D
S113360013040000FFFF0F8010B5041E28D000F043
S113361033F8154B154A1B1AD21A1F2A15DD144A02
S1133620D21A9440002224035B05240B5B0D002175
S1133630100024030A0D240B120522430D4C1B0514
S1133640224013435B00590810BD210091400A0039
S11336500B21081AC4405B052403240B5B0DE6E729
S1133660002300240022E2E71E04000033040000CB
S113367013040000FFFF0F801C2101231B04984248
S113368001D3000C10391B0A984201D3000A0839EF
S11336901B09984201D30009043902A2105C4018A6
S11336A07047C0460403020201010101000000004A
S11336B00000000070B500260C4D0D4C641BA410D6
S11336C0A64209D1002600F0AFF80A4D0A4C641B4B
S11336D0A410A64205D170BDB300EB58984701363B
S11336E0EEE7B300EB5898470136F2E734380000B0
S11336F03438000034380000383800002E2E2F688B
S1133700616C2F7372632F68616C5F6164635F73B4
S1133710796E632E630000002E2E2F68616C2F7368
S113372072632F68616C5F6461635F73796E632E8B
S1133730630000002E2E2F68616C2F7372632F6854
S1133740616C5F696F2E63002E2E2F68616C2F737E
S113375072632F68616C5F7370695F735F73796EF6
S1133760632E630000000002000001070100460010
S11337700000000000000000000000000000000045
S113378001000002000011010100460000000000D9
S11337900000000000000000000000002E2E2F6832
S11337A0706C2F6164632F68706C5F6164632E6357
S11337B0000000002E2E2F68706C2F6461632F6848
S11337C0706C5F6461632E63000000002E2E2F680E
S11337D0706C2F736572636F6D2F68706C5F7365A7
S11337E072636F6D2E630000802800006228000061
S11337F01C2800003A2700001C2800005428000060
S11338001C2800003A2700006228000062280000FB
S1133810542800003A270000322700003227000015
S113382032270000982A0000F8B5C046F8BC08BC4E
S11338309E467047DD000000F8B5C046F8BC08BCE1
S10B38409E467047B50000002C
S10B3848000C00430100000024
S9030000FC
